{
  "contractName": "Adoption",
  "abi": [
    {
      "constant": true,
      "inputs": [
        {
          "internalType": "uint256",
          "name": "",
          "type": "uint256"
        }
      ],
      "name": "adopters",
      "outputs": [
        {
          "internalType": "address",
          "name": "",
          "type": "address"
        }
      ],
      "payable": false,
      "stateMutability": "view",
      "type": "function"
    },
    {
      "constant": true,
      "inputs": [
        {
          "internalType": "uint256",
          "name": "",
          "type": "uint256"
        }
      ],
      "name": "donaters",
      "outputs": [
        {
          "internalType": "address",
          "name": "",
          "type": "address"
        }
      ],
      "payable": false,
      "stateMutability": "view",
      "type": "function"
    },
    {
      "constant": true,
      "inputs": [
        {
          "internalType": "uint256",
          "name": "",
          "type": "uint256"
        },
        {
          "internalType": "uint256",
          "name": "",
          "type": "uint256"
        }
      ],
      "name": "favs",
      "outputs": [
        {
          "internalType": "address",
          "name": "",
          "type": "address"
        }
      ],
      "payable": false,
      "stateMutability": "view",
      "type": "function"
    },
    {
      "constant": true,
      "inputs": [
        {
          "internalType": "uint256",
          "name": "",
          "type": "uint256"
        }
      ],
      "name": "vaccinated",
      "outputs": [
        {
          "internalType": "address",
          "name": "",
          "type": "address"
        }
      ],
      "payable": false,
      "stateMutability": "view",
      "type": "function"
    },
    {
      "constant": false,
      "inputs": [
        {
          "internalType": "uint256",
          "name": "petId",
          "type": "uint256"
        }
      ],
      "name": "adopt",
      "outputs": [
        {
          "internalType": "uint256",
          "name": "",
          "type": "uint256"
        }
      ],
      "payable": false,
      "stateMutability": "nonpayable",
      "type": "function"
    },
    {
      "constant": true,
      "inputs": [],
      "name": "getAdopters",
      "outputs": [
        {
          "internalType": "address[16]",
          "name": "",
          "type": "address[16]"
        }
      ],
      "payable": false,
      "stateMutability": "view",
      "type": "function"
    },
    {
      "constant": false,
      "inputs": [
        {
          "internalType": "uint256",
          "name": "petId",
          "type": "uint256"
        }
      ],
      "name": "vaccinate",
      "outputs": [
        {
          "internalType": "uint256",
          "name": "",
          "type": "uint256"
        }
      ],
      "payable": false,
      "stateMutability": "nonpayable",
      "type": "function"
    },
    {
      "constant": true,
      "inputs": [],
      "name": "getVacciPets",
      "outputs": [
        {
          "internalType": "address[16]",
          "name": "",
          "type": "address[16]"
        }
      ],
      "payable": false,
      "stateMutability": "view",
      "type": "function"
    },
    {
      "constant": false,
      "inputs": [
        {
          "internalType": "uint256",
          "name": "petId",
          "type": "uint256"
        },
        {
          "internalType": "address",
          "name": "friend_address",
          "type": "address"
        }
      ],
      "name": "gifttofriend",
      "outputs": [
        {
          "internalType": "uint256",
          "name": "",
          "type": "uint256"
        }
      ],
      "payable": false,
      "stateMutability": "nonpayable",
      "type": "function"
    },
    {
      "constant": false,
      "inputs": [
        {
          "internalType": "uint256",
          "name": "petId",
          "type": "uint256"
        }
      ],
      "name": "deadopt",
      "outputs": [
        {
          "internalType": "uint256",
          "name": "",
          "type": "uint256"
        }
      ],
      "payable": false,
      "stateMutability": "nonpayable",
      "type": "function"
    },
    {
      "constant": false,
      "inputs": [
        {
          "internalType": "uint256",
          "name": "petId",
          "type": "uint256"
        }
      ],
      "name": "donate",
      "outputs": [
        {
          "internalType": "uint256",
          "name": "",
          "type": "uint256"
        }
      ],
      "payable": true,
      "stateMutability": "payable",
      "type": "function"
    },
    {
      "constant": true,
      "inputs": [],
      "name": "getDonaters",
      "outputs": [
        {
          "internalType": "address[16]",
          "name": "",
          "type": "address[16]"
        }
      ],
      "payable": false,
      "stateMutability": "view",
      "type": "function"
    },
    {
      "constant": false,
      "inputs": [
        {
          "internalType": "uint256",
          "name": "petId",
          "type": "uint256"
        }
      ],
      "name": "favourite",
      "outputs": [
        {
          "internalType": "bool",
          "name": "",
          "type": "bool"
        }
      ],
      "payable": false,
      "stateMutability": "nonpayable",
      "type": "function"
    },
    {
      "constant": false,
      "inputs": [
        {
          "internalType": "uint256",
          "name": "petId",
          "type": "uint256"
        }
      ],
      "name": "getFavs",
      "outputs": [
        {
          "internalType": "uint256",
          "name": "val",
          "type": "uint256"
        }
      ],
      "payable": false,
      "stateMutability": "nonpayable",
      "type": "function"
    }
  ],
  "bytecode": "0x608060405234801561001057600080fd5b50610ca2806100206000396000f3fe6080604052600436106100dd5760003560e01c806382777ee71161007f578063d1e0d33f11610059578063d1e0d33f146104ae578063e9a8494214610501578063f14faf6f1461057c578063f47be5c7146105be576100dd565b806382777ee7146103955780638588b2c514610410578063bd3e01a61461045f576100dd565b806343ae80d3116100bb57806343ae80d3146101f35780635623e7fd1461026e5780636a2507b9146102c1578063723cc72814610346576100dd565b806302e11ad7146100e25780631d744a69146101315780633de4eb17146101a0575b600080fd5b3480156100ee57600080fd5b5061011b6004803603602081101561010557600080fd5b8101908080359060200190929190505050610611565b6040518082815260200191505060405180910390f35b34801561013d57600080fd5b5061018a6004803603604081101561015457600080fd5b8101908080359060200190929190803573ffffffffffffffffffffffffffffffffffffffff169060200190929190505050610682565b6040518082815260200191505060405180910390f35b3480156101ac57600080fd5b506101b56106da565b6040518082601060200280838360005b838110156101e05780820151818401526020810190506101c5565b5050505090500191505060405180910390f35b3480156101ff57600080fd5b5061022c6004803603602081101561021657600080fd5b810190808035906020019092919050505061075b565b604051808273ffffffffffffffffffffffffffffffffffffffff1673ffffffffffffffffffffffffffffffffffffffff16815260200191505060405180910390f35b34801561027a57600080fd5b506102a76004803603602081101561029157600080fd5b810190808035906020019092919050505061078e565b604051808215151515815260200191505060405180910390f35b3480156102cd57600080fd5b50610304600480360360408110156102e457600080fd5b8101908080359060200190929190803590602001909291905050506108e1565b604051808273ffffffffffffffffffffffffffffffffffffffff1673ffffffffffffffffffffffffffffffffffffffff16815260200191505060405180910390f35b34801561035257600080fd5b5061037f6004803603602081101561036957600080fd5b810190808035906020019092919050505061092c565b6040518082815260200191505060405180910390f35b3480156103a157600080fd5b506103ce600480360360208110156103b857600080fd5b81019080803590602001909291905050506109e6565b604051808273ffffffffffffffffffffffffffffffffffffffff1673ffffffffffffffffffffffffffffffffffffffff16815260200191505060405180910390f35b34801561041c57600080fd5b506104496004803603602081101561043357600080fd5b8101908080359060200190929190505050610a19565b6040518082815260200191505060405180910390f35b34801561046b57600080fd5b506104986004803603602081101561048257600080fd5b8101908080359060200190929190505050610a8a565b6040518082815260200191505060405180910390f35b3480156104ba57600080fd5b506104c3610aa5565b6040518082601060200280838360005b838110156104ee5780820151818401526020810190506104d3565b5050505090500191505060405180910390f35b34801561050d57600080fd5b5061053a6004803603602081101561052457600080fd5b8101908080359060200190929190505050610b25565b604051808273ffffffffffffffffffffffffffffffffffffffff1673ffffffffffffffffffffffffffffffffffffffff16815260200191505060405180910390f35b6105a86004803603602081101561059257600080fd5b8101908080359060200190929190505050610b58565b6040518082815260200191505060405180910390f35b3480156105ca57600080fd5b506105d3610bc9565b6040518082601060200280838360005b838110156105fe5780820151818401526020810190506105e3565b5050505090500191505060405180910390f35b6000808210158015610624575060108211155b61062d57600080fd5b336010836010811061063b57fe5b0160006101000a81548173ffffffffffffffffffffffffffffffffffffffff021916908373ffffffffffffffffffffffffffffffffffffffff160217905550819050919050565b6000816000846010811061069257fe5b0160006101000a81548173ffffffffffffffffffffffffffffffffffffffff021916908373ffffffffffffffffffffffffffffffffffffffff16021790555082905092915050565b6106e2610c4a565b6000601080602002604051908101604052809291908260108015610751576020028201915b8160009054906101000a900473ffffffffffffffffffffffffffffffffffffffff1673ffffffffffffffffffffffffffffffffffffffff1681526020019060010190808311610707575b5050505050905090565b6000816010811061076857fe5b016000915054906101000a900473ffffffffffffffffffffffffffffffffffffffff1681565b60008082101580156107a1575060108211155b6107aa57600080fd5b600080905060008090505b603084601081106107c257fe5b0180549050811015610857573373ffffffffffffffffffffffffffffffffffffffff16603085601081106107f257fe5b0182815481106107fe57fe5b9060005260206000200160009054906101000a900473ffffffffffffffffffffffffffffffffffffffff1673ffffffffffffffffffffffffffffffffffffffff16141561084a57600191505b80806001019150506107b5565b506000151581151514156108d8576030836010811061087257fe5b013390806001815401808255809150509060018203906000526020600020016000909192909190916101000a81548173ffffffffffffffffffffffffffffffffffffffff021916908373ffffffffffffffffffffffffffffffffffffffff160217905550505b80915050919050565b603082601081106108ee57fe5b0181815481106108fa57fe5b906000526020600020016000915091509054906101000a900473ffffffffffffffffffffffffffffffffffffffff1681565b60003373ffffffffffffffffffffffffffffffffffffffff166000836010811061095257fe5b0160009054906101000a900473ffffffffffffffffffffffffffffffffffffffff1673ffffffffffffffffffffffffffffffffffffffff1614156109de57600080836010811061099e57fe5b0160006101000a81548173ffffffffffffffffffffffffffffffffffffffff021916908373ffffffffffffffffffffffffffffffffffffffff1602179055505b819050919050565b601081601081106109f357fe5b016000915054906101000a900473ffffffffffffffffffffffffffffffffffffffff1681565b6000808210158015610a2c575060108211155b610a3557600080fd5b3360008360108110610a4357fe5b0160006101000a81548173ffffffffffffffffffffffffffffffffffffffff021916908373ffffffffffffffffffffffffffffffffffffffff160217905550819050919050565b600060308260108110610a9957fe5b01805490509050919050565b610aad610c4a565b60108080602002604051908101604052809291908260108015610b1b576020028201915b8160009054906101000a900473ffffffffffffffffffffffffffffffffffffffff1673ffffffffffffffffffffffffffffffffffffffff1681526020019060010190808311610ad1575b5050505050905090565b60208160108110610b3257fe5b016000915054906101000a900473ffffffffffffffffffffffffffffffffffffffff1681565b6000808210158015610b6b575060108211155b610b7457600080fd5b3360208360108110610b8257fe5b0160006101000a81548173ffffffffffffffffffffffffffffffffffffffff021916908373ffffffffffffffffffffffffffffffffffffffff160217905550819050919050565b610bd1610c4a565b6020601080602002604051908101604052809291908260108015610c40576020028201915b8160009054906101000a900473ffffffffffffffffffffffffffffffffffffffff1673ffffffffffffffffffffffffffffffffffffffff1681526020019060010190808311610bf6575b5050505050905090565b60405180610200016040528060109060208202803883398082019150509050509056fea265627a7a723158206265ed95f9f20a02accfa2639e147e30a6d3c748819abdceab42e8e536612a9064736f6c63430005110032",
  "source": "pragma solidity ^0.5.0;\n\ncontract Adoption {\naddress[16] public adopters;\naddress[16] public vaccinated;\naddress[16] public donaters;\n\n//dynamic array\naddress[][16] public favs;\n\n\n// Adopting a pet\nfunction adopt(uint petId) public returns (uint) {\n  require(petId >= 0 && petId <= 16);\n\n  adopters[petId] = msg.sender;\n\n  return petId;\n}\n\n// Retrieving the adopters\nfunction getAdopters() public view returns (address[16] memory) {\n  return adopters;\n}\n\n// vaccinate a pet (irreversible)\nfunction vaccinate(uint petId) public returns (uint) {\n  require (petId >= 0 && petId <= 16);\n  vaccinated[petId] = msg.sender;\n  return petId;\n}\n\n// get vaccinated pets\nfunction getVacciPets() public view returns (address[16] memory) {\n   return vaccinated;\n}\n\n// gift the pet to friend. Adopt a pet and give it a friend's address\nfunction gifttofriend(uint petId, address friend_address) public returns (uint) {\n\n  adopters[petId] = friend_address;\n  return petId;\n}\n\n// deadopt pet\nfunction deadopt(uint petId) public returns (uint) {\n\n  // only the user who is currently adopting the pet can deadopt it\n  if(adopters[petId] == msg.sender){\n    adopters[petId] = 0x0000000000000000000000000000000000000000;\n  }\n\n  return petId;\n}\n\n// Donating ETH to a pet\nfunction donate(uint petId) public payable returns (uint) {\n  require(petId >= 0 && petId <= 16);\n\n  donaters[petId] = msg.sender;\n\n  return petId;\n}\n\n// Retrieving the donaters who donated ETH to pet\nfunction getDonaters() public view returns (address[16] memory) {\n  return donaters;\n}\n\n// Favourting a pet // this function keeps a count of number of times a pet was favourited\nfunction favourite(uint petId) public returns (bool) {\n  require(petId >= 0 && petId <= 16);\n  bool alreadyfavourited = false;\n\n  // check if the pet was already favourited by this user address\n  for (uint i =0; i<favs[petId].length ; i++){\n    if (favs[petId][i] == msg.sender){\n      alreadyfavourited = true;\n    }\n  }\n\n  // if pet was not favourited by this user address yet, then add the user address to the favs dynamic array\n  if (alreadyfavourited ==false){\n    favs[petId].push(msg.sender);\n  }\n\n  return alreadyfavourited;\n}\n\n// Return the count of unique users who favourited the pet\nfunction getFavs(uint petId) public returns (uint val) {\n  return favs[petId].length;\n}\n\n\n}\n",
  "sourcePath": "/Users/haya/Documents/Studies_SKULE/MEng/APS1050/Final Project Submission/Petshop-final_merge_vF/contracts/Adoption.sol",
  "compiler": {
    "name": "solc",
    "version": "0.5.17+commit.d19bba13.Emscripten.clang"
  },
  "schemaVersion": "3.0.22",
  "updatedAt": "2022-04-25T23:31:01.181Z",
  "networkType": "ethereum",
  "devdoc": {
    "methods": {}
  },
  "userdoc": {
    "methods": {}
  }
}